:100000000C9434000C943E000C943E000C943E0082
:100010000C943E000C943E000C943E000C943E0068
:100020000C943E000C943E000C943E000C943E0058
:100030000C943E000C943E000C943E000C943E0048
:100040000C943E000C943E000C943E000C943E0038
:100050000C943E000C943E000C943E000C943E0028
:100060000C943E000C943E0011241FBECFEFD8E04C
:10007000DEBFCDBF0E9440000C9468000C940000CD
:10008000E1ECF0E080818860808380818061808302
:10009000E2ECF0E0808180628083808180618083F7
:1000A00080811082808184608083808182608083EF
:1000B00080811082808180688083808180648083D9
:1000C0001092C50083E38093C40080E090E008951F
:0400D000F894FFCFD2
:00000001FF
