:100000000C9434000C943E000C943E000C943E0082
:100010000C943E000C943E000C943E000C943E0068
:100020000C943E000C943E000C943E000C943E0058
:100030000C943E000C943E000C943E000C943E0048
:100040000C943E000C943E000C943E000C943E0038
:100050000C943E000C943E000C943E000C943E0028
:100060000C943E000C943E0011241FBECFEFD8E04C
:10007000DEBFCDBF0E947A000C9488000C94000073
:10008000E1ECF0E020812860208320812061208342
:10009000A0ECB0E02C912D7F2C939093C500809321
:1000A000C4008081806880838081806480838081B7
:1000B00080628083E2ECF0E08081806280838081D6
:1000C00080618083808110828081846080838081D0
:1000D00082608083808110828081806880838081BB
:1000E0008064808308959091C00095FFFCCF809339
:1000F000C600089587E690E00E94400081E60E94D5
:10010000730082E60E94730083E60E947300F6CFBC
:04011000F894FFCF91
:00000001FF
