:100000000C9434000C943E000C943E000C943E0082
:100010000C943E000C943E000C943E000C943E0068
:100020000C943E000C943E000C943E000C943E0058
:100030000C943E000C943E000C943E000C943E0048
:100040000C943E000C943E000C943E000C943E0038
:100050000C943E000C943E000C943E000C943E0028
:100060000C943E000C943E0011241FBECFEFD8E04C
:10007000DEBFCDBF0E9471000C947F000C94000085
:100080009093C5008093C400E1ECF0E0808188602B
:100090008083808180618083E2ECF0E080818068F1
:1000A000808380818064808380811082A0ECB0E0B6
:1000B0008C918D7F8C938081806280838081806130
:1000C00080838081108280818460808380818260CF
:1000D000808308959091C00095FFFCCF8093C60067
:1000E000089587E690E00E94400081E60E946A0041
:1000F00082E60E946A0083E60E946A00F6CFF894C6
:02010000FFCF2F
:00000001FF
